:020000040000fa
:080000000002040000000000f2
:020000040000fa
:100400008f8520000eff27000e01880000000000ed
:100410000c000700209a2000010020000f000700b8
:10042000000020000000e000020032000000020096
:10043000000000004c030200000000000040da0051
:100440000000fe00000820000000e0000200320072
:10045000002020009001880000000600a102880012
:10046000800078000000eb001a003700e2804000b6
:1004700054a0b4009101ba00e280400054a0b4003e
:100480009102ba00e280400054a0b4000002eb00e8
:10049000472bde00f507b200a6018800602ce100c2
:1004a00008003a000049eb000201e80002003900b0
:1004b0003420ec0002f0a0008301e900f9ff3e00c7
:1004c000040037006128e100010032000082eb00e7
:1004d000040007001101ba000200e000e3ff3a0047
:1004e0000000060004d0a300e20f49001c00390000
:1004f000810278003549ba000201e80002003900a3
:100500003420ec0002f0a0008301e9000f0032006b
:100510002549ba000201e800020039003420ec004d
:1005200002f0a0008301e900080032000400e000ae
:100530000600320015c9ba000201e80002003900c5
:100540003420ec0002f0a0008301e9008180e80083
:1005500054a0b4000300e000e2ff3a0000000600ef
:100560009102ba00055978008301e900f7ff3200d3
:10057000c82ade00055978008301e900f3ff320044
:100580000400e000f1ff320011d9ba00eeff37009d
:080590000040da000000fe004b
:020000040000fa
:020000040005f5
:0457f400fffd0000b5
:020000040000fa
:020000040005f5
:0457f800cf77000067
:020000040000fa
:020000040005f5
:0457fc007f7f0000ab
:020000040000fa
:10000800c8020000c8020000c8020000c8020000c0
:10001800c8020000c8020000c8020000c8020000b0
:10002800c8020000c8020000c8020000c8020000a0
:10003800c8020000c8020000c8020000c802000090
:10004800c8020000c8020000c8020000c802000080
:10005800c8020000c8020000c8020000c802000070
:10006800c8020000c8020000c8020000c802000060
:10007800c8020000c8020000c8020000c802000050
:10008800c8020000c8020000c8020000c802000040
:10009800c8020000c8020000c8020000c802000030
:1000a800c8020000c8020000c8020000c802000020
:1000b800c8020000c8020000c8020000c802000010
:1000c800c8020000c8020000c8020000c802000000
:1000d800c8020000c8020000c8020000c8020000f0
:1000e800c8020000c8020000c8020000c8020000e0
:1000f800c8020000c8020000c8020000c8020000d0
:10010800c8020000c8020000c8020000c8020000bf
:10011800c8020000c8020000c8020000c8020000af
:10012800c8020000c8020000c8020000c80200009f
:10013800c8020000c8020000c8020000c80200008f
:10014800c8020000c8020000c8020000c80200007f
:10015800c8020000c8020000c8020000c80200006f
:10016800c8020000c802000088090000c802000098
:10017800c8020000c8020000c8020000c80200004f
:10018800c8020000c8020000c8020000c80200003f
:10019800c8020000c8020000c8020000c80200002f
:1001a800c8020000c8020000c8020000c80200001f
:1001b800c8020000c8020000c8020000c80200000f
:1001c800c8020000c8020000c8020000c8020000ff
:1001d800c8020000c8020000c8020000c8020000ef
:1001e800c8020000c8020000c8020000c8020000df
:0801f800c8020000c80200006b
:020000040000fa
:10020800c8020000c8020000c8020000c8020000be
:10021800c8020000c8020000c8020000c8020000ae
:10022800c8020000c8020000c8020000c80200009e
:10023800c8020000c8020000c8020000c80200008e
:10024800c8020000c8020000c8020000c80200007e
:10025800c8020000c8020000c8020000c80200006e
:10026800c8020000c8020000c8020000c80200005e
:10027800c8020000c8020000c8020000c80200004e
:10028800c8020000c8020000c8020000c80200003e
:10029800c8020000c8020000c8020000c80200002e
:1002a800c8020000c8020000c8020000c80200001e
:1002b800c8020000c8020000c8020000c80200000e
:1002c800c8020000c8020000c8020000c8020000fe
:1002d800c8020000c8020000c8020000c8020000ee
:1002e800c8020000c8020000c8020000c8020000de
:1002f800c8020000c8020000c8020000c8020000ce
:10030800c8020000c8020000c8020000c8020000bd
:10031800c8020000c8020000c8020000c8020000ad
:10032800c8020000c8020000c8020000c80200009d
:10033800c8020000c8020000c8020000c80200008d
:10034800c8020000c8020000c8020000c80200007d
:10035800c8020000c8020000c8020000c80200006d
:10036800c8020000c802000088090000c802000096
:10037800c8020000c8020000c8020000c80200004d
:10038800c8020000c8020000c8020000c80200003d
:10039800c8020000c8020000c8020000c80200002d
:1003a800c8020000c8020000c8020000c80200001d
:1003b800c8020000c8020000c8020000c80200000d
:1003c800c8020000c8020000c8020000c8020000fd
:1003d800c8020000c8020000c8020000c8020000ed
:1003e800c8020000c8020000c8020000c8020000dd
:0803f800c8020000c802000069
:020000040000fa
:1005980020200000204300004f4c00004c49000080
:1005a800534900004f4e00002020000020000000aa
:1005b800444500005445000043540000204d00000d
:1005c8004f440000554c0000450000004154000015
:1005d80000480000656c00006d6500007420000094
:1005e8004e4f000054000000576500006172000083
:1005f80065640000004100006c6300006f68000043
:100608006f6c0000206400006574000065630000e2
:1006180074000000486500006c6d000065740000ff
:10062800205700006561000072650000640000004a
:100638004163000063690000646500006e74000097
:100648002077000069740000680000002041000065
:1006580063630000656c00006e2e00002e2e000003
:100668002e2e00002e200000004c000041540000f7
:100678004954000055440000450000004c4f00005c
:100688004e47000049540000554400004500000052
:020000040000fa
:100698000000fa0045e7a900517420009140780055
:1006a800f0c8b30000c0600045e7b7004567a9007f
:1006b800517420009140780080cfb30000c06000e2
:1006c80045e7b70044c7bf00f043b20001c8b30014
:1006d8000140700044e7b70044a7a9004487a90077
:1006e800113a8000f00b20000081600061042000b6
:1006f8007005200023742000814978008049780023
:1007080082497800416a20009140780000ccb3000b
:1007180000c060006041b300a4e6b700616a200031
:100728009140780000ccb30000c060004041b300a5
:10073800a6e6b700316a20009140780000ccb300eb
:1007480000c06000c040b300a3e6b700916d200070
:100758009140780000ccb30000c060003040b30086
:10076800d9e6b700113a800000042000008170002b
:10077800610420007005200023742000814978005e
:1007880080497800824978003000200040168800af
:100798000000eb00801688000000eb00c0168800ff
:1007a8000000eb00001788000000eb0040178800ed
:1007b800d842a900d862a800d962a800c822a80017
:1007c800c802a800d8a2a800d802a900d882a90007
:1007d8000000eb00501688000000eb00901688001f
:1007e8000000eb00d01688000000eb00101788000e
:1007f8000000eb0050178800012520009140780088
:1008080090cfb30000c0600050e2b7005002a900ca
:100818005062a90090012000c012880000802000ca
:1008280080128800100020006e0207000080280057
:100838008012880000112200901288000000eb004e
:100848000004880000302000600688000020200096
:100858009005880000002100400588000000eb009a
:10086800200488000000eb00300488000000eb0042
:100878007004880042c0bf007f40600042e0b700bb
:1008880081e0a8004460a90081e0a800d10c200004
:100898009140780080cfb30000c060000024a00021
:1008a800cde0b7008e40a9000000eb00f0048800fe
:1008b80020032000590207005116800070ff2f0006
:1008c80000806000501688002000200053020700b6
:1008d80080c3b300cd000700200020004f020700ae
:1008e800e0c0b300c9000700200020004b02070049
:1008f80060c0b300c50007002000200047020700c1
:1009080010c0b300c1000700200020004302070008
:1009180000c8b300bd000700200020003f02070008
:10092800c02c2800d1000700200020003b0207004f
:1009380000ccb300b5000700c02d2800cb0007008d
:100948004d020700401f200034020700a02e280097
:100958005d020700401f200030020700e700070083
:10096800007d20002d020700a2000700a10007005b
:100978000040eb0000e8b7001d003700d200070078
:1009880047e8b700718420009140780050c5b30053
:1009980080cf500013003a00cb00070002e8b700f0
:1009a800c900070001e8b700c700070003e8b7005f
:1009b80003c8bf000081fb0001c8bf008080fb00a6
:1009c80002c8bf000080fb0000804000800f51007b
:1009d80004003a0002c8bf0046e8b70001c8bf00db
:1009e80004e8b70000c8bf000040e80000e8b7000e
:1009f80000c8bf00f34f5000e0ff360004c8bf0036
:100a0800e64f500053003a0061842000914078007e
:100a180050c4b30080cf50001c003a0054c8bf0037
:100a2800e14f500019003a0010c0b30077000700ea
:100a380020002000f901070000c8b3007300070078
:100a480020002000f5010700d02e280087000700ad
:100a580020002000f101070000ccb3006b00070064
:100a680020002000ed010700802f28007f000700ec
:100a7800da02a9000040eb0054e8b70010c0b30048
:100a880055e8b70010c0b30056e8b70061842000ed
:100a98009140780050c6b30080cf500014003a004f
:100aa80055c8bf00e14f500011003a0010c0b30014
:100ab8005600070020002000d801070000c8b30036
:100ac8005200070020002000d4010700f02f280062
:100ad80066000700da02a90010c0b30054e8b700a6
:100ae8000040eb0055e8b70010c0b30056e8b70067
:100af800618420009140780050c7b30080cf500037
:100b080014003a0056c8bf00e14f500011003a00e7
:100b180010c0b3003d00070020002000bf010700ff
:100b280000c8b3003900070020002000bb010700ff
:100b3800e03028004d000700da02a80010c0b3001a
:100b480054e8b70010c0b30055e8b7000040eb0008
:100b580056e8b70004c8bf00f54f500084ff3a00bc
:100b680010c0b3002900070020002000ab010700d7
:100b780000c8b3002500070020002000a7010700d7
:100b8800c03128003900070000ccb3001f0007005f
:100b980020002000a101070046c8bf008080fb009c
:100ba800000f2000008060004480de000043b00099
:100bb80021000700200020009801070046c8bf0058
:100bc8006f4060000043b0001b00070070c6b30010
:100bd800190007002000200090010700a03228001b
:100be80022000700007d20008c010700010007009b
:100bf800dbff37000000fa003222a900530007008b
:100c08007b0007000080fa00000006000200fa00de
:100c1800004f7800da42a9001e80fb0010178800f8
:100c2800ca82a800200320006e010700ca82a9001a
:100c38000080fa00000006000200fa00004f780069
:100c48002003200067010700da42a8001e80fb008d
:100c580010178800ca82a80020032000610107003d
:100c6800ca82a9000080fa00000006000400fa0009
:100c7800100798000000eb00000f7800090037000b
:100c88001e007800800078001e0090000080400060
:100c980010407800e8ff07001e0fe800a0002000c1
:100ca8005e0107001e007800800078001e0090009a
:100cb80000804000104078000004e000f0ff3a0097
:100cc8000080fa00000006000000fa005222a90085
:100cd8008ec0bf00644060000004e000fcff3200ea
:100ce800b012800048e8b7008e40a90048c8bf008d
:100cf8000080fb000080fa00000006000000fa00f7
:100d0800012320009140780090cfb30000c060001c
:100d180030e2b7003002a9003062a9003003200099
:100d2800c011880000802000801188001000200079
:100d38002c01070000802800801188000011220083
:100d4800901188000080fa00000006000000fa00f8
:100d58002100370087c0bf000044b2000004e00053
:100d68001d0032003222a90082428000b0118000aa
:100d78008040780050802000000041000148780041
:100d88000200e8008042880080428000e60f5000a0
:100d980010003e00804280008000e9005080200062
:100da80000804000104078000001fb008042800075
:100db8008000e90090842000008040001040780006
:100dc8000080fb00800f5100020032000000eb00a1
:100dd8008042880087c0a90081428000d00220009c
:100de800808f5000dbff36000080fa00000006000c
:100df8000000fa000a00070026000700007d200016
:100e08000601070095000700007d20000301070088
:100e18000000eb00804288000080fa000000060015
:100e28000400fa000000eb00000f78000000eb005f
:100e380010079800110037009e0090005080200095
:100e48000080400090407800c0c2b30080cf5000be
:100e580007003a001e0178001e00900080407800cc
:100e68002083200000004100014878001e0fe800a0
:100e78001e0090000000e800100798009e009000f7
:100e880050042000808f5000ebff36000080fa00ed
:100e9800000006000200fa0033c8bf000080fb0013
:100ea800000f78005800070010c0b30057ff070074
:100eb80020002000d900070000c8b30053ff070036
:100ec80020002000d50007009033280067ff0700a6
:100ed80020002000d100070000ccb3004bff070022
:100ee80020002000cd0007009e00e8005080200070
:100ef80000804000104078004fff07009e80e80007
:100f08005080200000804000104078004aff070011
:100f18000040eb0048ff07001e007800e300400097
:100f280050802000008040001040780042ff0700f9
:100f38001e007800e400400050802000008040003f
:100f4800104078003cff07001e007800e5004000d4
:100f580050802000008040001040780036ff0700d5
:100f68001e007800e600400050802000008040000d
:100f78001040780030ff07001e007800e7004000ae
:100f88005080200000804000104078002aff0700b1
:100f98001e007800e80040005080200000804000db
:100fa8001040780024ff07001e007800e900400088
:100fb8005080200000804000104078001eff07008d
:100fc80070c2b3001cff07001e007800ea00400052
:100fd80050802000008040001040780016ff070075
:100fe8001e007800eb004000508020000080400088
:100ff8001040780010ff0700a00f200079000700bc
:101008000080fa00000006000000fa0000c4b300e7
:10101800fefe0700a0c0b30007ff070010c1b30021
:1010280005ff070010c1b30003ff0700a0c0b3000d
:1010380001ff07000040eb00fffe07000040eb0047
:10104800fdfe07000040eb00fbfe07000040eb0040
:10105800f9fe07000080fa00000006000200fa000e
:1010680035c8bf000080fb00000f780010c0b30037
:10107800e6fe0700200020006800070000c8b30053
:10108800e2fe07002000200064000700203428004a
:10109800f6fe0700200020006000070000ccb30027
:1010a800dafe0700200020005c0007009e00e80030
:1010b800508020000080400010407800defe0700cd
:1010c8009e80e8005080200000804000104078009a
:1010d800d9fe07001e007800e30040005080200081
:1010e8000080400010407800d3fe07000040eb006d
:1010f800d1fe07001e007800e40040005080200068
:101108000080400010407800cbfe07001e007800e9
:10111800e50040005080200000804000104078002a
:10112800c5fe07001e007800e60040005080200041
:101138000080400010407800bffe07001e007800c5
:10114800e7004000508020000080400010407800f8
:10115800b9fe07001e007800e8004000508020001b
:101168000080400010407800b3fe07001e007800a1
:10117800e9004000508020000080400010407800c6
:10118800adfe07001e007800ea00400050802000f5
:101198000080400010407800a7fe070070c2b3002e
:1011a800a5fe07001e007800eb00400050802000dc
:1011b80000804000104078009ffe07001e00780065
:1011c800ec00400050802000008040001040780073
:1011d80099fe0700a00f2000020007000080fa0017
:1011e800000006000600fa00200798000000eb0047
:1011f80010079800030037001e0090000000e80068
:10120800100798009e0090002e009000808f5000dc
:10121800f9ff39000080fa00000006000400fa0017
:10122800100798000000eb00800888000000eb0021
:10123800000f78000a00370000fa200060088800d4
:1012480011e1a80084c0bf0001c8b30001406000dc
:101258000004e000fbff320084e0a9001e0fe80054
:101268001e0090009e0f1000f3ff390011e1a90045
:101278000080fa00000006000000fa007006200056
:10128800401188008080280000118800004020005c
:10129800101188000080fa00000006000200fa0021
:1012a800000f780023c2bf00624060000004e00025
:1012b800fcff3a001e007800201188001e0078000c
:1012c8000080fa00000006000200fa00000f780013
:1012d800050037001e007800104078000000fb0071
:1012e8001e0fe800edff07001e0078001040780090
:1012f8000004e000f7ff3a00d0002000e7ff0700f5
:101308000080fa0000000600801f78003200f80014
:1013180000202000900188000000fa008e40a900fb
:101328005222a900b012800046e8b7000080fa00f7
:0c1338003200f9004f0078000040060071
:020000040000fa
:101344004608000012000000820000000055000062
:1013540024475000474741000000000000000100fe
:1013640001010000000800004600000080000000a9
:041374000000000075
:00000001FF
