:06000000012888014129DE
:1001920000340234003402345534FE0012001E00D2
:1001A200FE0BCF280034640080010131890BD52871
:1001B2000034F000700823009A00DF282000111E8E
:1001C200E328E428DF281112080000340134043443
:1001D2000934103419342434313440345134643401
:1001E20079349034A934C434E134F201F301FD28A6
:1001F2000130F2070030F33D73087102031D032939
:1002020072087002031806290729F928082908002C
:1002120080302000B9063A08AA003B08AB003C082F
:10022200AC003708AD003808AE003908AF008531A0
:100232005625813120002A08B7002B08B8002C0867
:10024200B90023290800FD007D082000AD00AE01A1
:10025200AF012D08F0002E08F1002F08F2008E30B9
:10026200B0003008F300F4018131F32181317008CC
:100272002000AA007108AB007208AC0040290800F7
:10028200533084000030850018308031D420813111
:10029200C9308400803085006B30860000308700D2
:1002A20005308031CE208131E630840080308500F7
:1002B200A03086000030870010308031CE2081319E
:1002C2002000862EF501F6017108700403196A29CF
:1002D2006B29A129F7010314F70D79290130F035B3
:1002E200F10D890B70290130F4007408F7077929A0
:1002F200F11F7C297D296F297F297F290130F5355E
:10030200F60D890B802971087302031D8A29700872
:100312007202031C8D298E2994297008F202710839
:10032200F33B751494290130F136F00C890B9529B1
:100332000130F702031D9E299F297F29A129A129A6
:100342007608F101F1077508F001F007A829080005
:10035200F21FAC29AD29C2297009F6007109F70014
:100362007209F800F60A0319F70A0319F80A0030AD
:100372007607F0000030773DF1008030783DF200E2
:10038200C229F51FC529C629DB297309F60074099C
:10039200F7007509F800F60A0319F70A0319F80AB3
:1003A20000307607F3000030773DF4008030783D6E
:1003B200F500DB298030F2068030F50675087202FE
:1003C200031DE92974087102031DE92973087002EB
:1003D2000318EC29ED29EF290310F2290314F2295D
:1003E200F22908007308031DF729FF297208710416
:1003F2007004031DFD29FE29132AFF290030F00095
:100402000030F1000030F200652A652A132A01301B
:10041200F5007508F3070130F236F10CF00C890B88
:100422000D2A132AFE307205031D182A192A082ADA
:100432002F2A2F2A0130F5007508F3070130F00743
:10044200003003180130F107003003180130F207C1
:100452000130F236F10CF00C890B2A2AFF307205BA
:10046200031D342A352A1B2A402A402A0130F3026E
:100472000130F035F10DF20D890B3A2A402AF11FB5
:10048200432A442A372A7318472A482A4E2AFF3019
:10049200F0057F30F105FF30F2050310F30C73080D
:1004A200F500F601F7011030F535F60DF70D890B61
:1004B200552A7508F0047608F1047708F2047408E6
:1004C200031D642A652AF217080021001D088339DA
:1004D20008389D001D14200011130A30F00000306E
:1004E200F1008031F620823121009D14782A9D1876
:1004F2007B2A7C2A782A7D2A1B08F400F5011C0835
:10050200F600F7017608F700F60174087607200076
:10051200EB007508773DEC00111321001D088339AB
:100522000C389D001D14200011130A30F000003019
:10053200F1008031F620823121009D14A02A9D18FD
:10054200A32AA42AA02AA52A1B08F400F5011C0844
:10055200F600F7017608F700F60174087607200026
:10056200ED007508773DEE00111301306C02FF308B
:1005720003196B02031CBE2ABF2AC62A6B08013E5E
:10058200EB00FE306C3DEC00D42A6B09F4006C09E0
:10059200F500F40A0319F50A7408FF3EEB00013076
:1005A200753DEC00D42A01306E02FF3003196D0252
:1005B200031CDC2ADD2AE42A6D08013EED00FE3030
:1005C2006E3DEE00F22A6D09F4006E09F500F40AA0
:1005D2000319F50A7408FF3EED000130753DEE0087
:1005E200F22A080079082000A0007A08A1007B08FE
:1005F200A2000310210D220DA3002308A900A908BF
:10060200031D042B052B0F2B0030FC000030FB00D8
:100612000030FA000030F900912B912B7908A000EC
:100622007A08A1007B08A2001730A236A10CA00C08
:10063200890B162B2008A3002308A400FA17FF3009
:10064200F905FF30FA050030FB057908A5007A08A4
:10065200A6007B08A700A8018E30A902A91F322B91
:10066200332B562B2908803A8F3E0318392B3A2B0D
:10067200452B0030FC000030FB000030FA00003057
:10068200F900912B912B452B0130A836A70CA60C13
:10069200A50C890B462B0130A0002008A907031DD9
:1006A200532B542B452B782B782B18302902031C03
:1006B2005B2B5C2B712B0030FC000030FB00003008
:1006C200FA000030F900912B912B712B0130A535E6
:1006D200A60DA70DA80D890B682B0130A902712B5D
:1006E200A908031D752B762B672B782B782B2408F2
:1006F200031D7C2B882BA509A609A709A809A50A11
:100702000319A60A0319A70A0319A80A882B28089D
:10071200FC002708FB002608FA002508F900912BA7
:10072200080020002A08B0002B08B1002C08B200F3
:100732000310310D320DB3003308B400B408031DA9
:10074200A32BA42BAC2B0030AA000030AB0000304E
:10075200AC005B2C5B2C2D08B0002E08B1002F08DA
:10076200B2000310310D320DB3003308B900B908DD
:10077200031DBC2BBD2BC52B0030AA000030AB00E3
:100782000030AC005B2C5B2C39087B3EB00030089B
:10079200B4072A08B0002B08B1002C08B2001030B0
:1007A200B236B10CB00C890BD12B3008B300330830
:1007B200B9002D08B0002E08B1002F08B200103089
:1007C200B236B10CB00C890BE12B3008B300330800
:1007D200B9068030B0003008B905AB17AE17FF304C
:1007E200AD05FF30AE050030AF050030B50000307A
:1007F200B6000030B7000730B0003008B800012C56
:100802002A1C042C052C0C2C2D08B5072E08B63DED
:100812002F08B73D0C2C0130AC36AB0CAA0C890B5F
:100822000D2C0130AD35AE0DAF0D890B132C0130FF
:10083200B802031D1D2C1E2C012C1F2C0930B000E8
:100842003008B800242C2A1C272C282C2F2C2D08E9
:10085200B5072E08B63D2F08B73D2F2C0130AC3618
:10086200AB0CAA0C890B302C0130B736B60CB50C88
:10087200890B362C0130B802031D402C412C242C4C
:10088200422C3508F0003608F1003708F20034082F
:10089200B0003008F3003908B1003108F4008131AA
:1008A200F321833170082000AA007108AB0072089E
:1008B200AC005B2C08000030F0000030F10000308A
:1008C200F20020003D08F3003E08F4003F08F50066
:1008D2008131A9218431031C6F2C702C922C2000B1
:1008E2003D08F0003E08F1003F08F2000030F3003E
:1008F2000030F4000030F5008131A9218431031861
:10090200832C842C892C21302000D3000030D40089
:1009120000302000BD000030BE000030BF00552D69
:10092200552D20003D08C6003E08C7003F08C800FC
:100932003D09C0003E09C1003F09C200C00A0319B7
:10094200C10A0319C20AC8304007CD006E30413DCA
:10095200CE00BE30423DCF000130CF36CE0CCD0CA2
:10096200890BAE2C0030C0008030C1000030C200C4
:100972004008C6024108C73B4208C83B0430C000D9
:100982004008C9004D08C3004E08C4004F08C50006
:100992004608AA004708AB004808AC004D08AD0065
:1009A2004E08AE004F08AF008331922384312000FD
:1009B2002A08CA002B08CB002C08CC004D08AA003C
:1009C2004E08AB004F08AC004A08AD004B08AE0021
:1009D2004C08AF0083319223843120002A08CA00D8
:1009E2002B08CB002C08CC004D08AA004E08AB0007
:1009F2004F08AC004A08AD004B08AE004C08AF00EF
:100A020083319223843120002A08CA002B08CB00AC
:100A12002C08CC000030AA00C030AB003F30AC0044
:100A22004D08AD004E08AE004F08AF00833192234F
:100A3200843120002A08CD002B08CE002C08CF00DC
:100A42004A08B7004B08B8004C08B9004D08BA0074
:100A52004E08BB004F08BC008131092184312000BF
:100A62003708CD003808CE003908CF000130C9025E
:100A7200031D3C2D3D2DC32C3E2D3D08AA003E08F2
:100A8200AB003F08AC004D08AD004E08AE004F0869
:100A9200AF0083319223843120002A08BD002B0845
:100AA200BE002C08BF00552D080020002A08B00007
:100AB2002B08B1002C08B2000310310D320DB30027
:100AC2003308B6002D08B0002E08B1002F08B2007E
:100AD2000310310D320DB3003308B5003608031D83
:100AE200732D842D350836020318782D792D8C2D1F
:100AF2003603FF3A3507B00019303002031C822D4D
:100B0200832D8C2D842D2D08AA002E08AB002F08D2
:100B1200AC00852E852E3508031D902DA02D36089C
:100B220035020318952D962DA12D3503FF3A360770
:100B3200B00019303002031C9F2DA02DA12D852E4F
:100B42000630B0003008B400AC1FA82DA92DAA2D84
:100B5200B417AF1FAD2DAE2DAF2D3417AB17FF302D
:100B6200AA05FF30AB050030AC05AE17FF30AD056E
:100B7200FF30AE050030AF05350836020318C22D2E
:100B8200C32DF02DC42D0130AD35AE0DAF0D890B47
:100B9200C52D0130B502350836060319D12DD22DE7
:100BA200E82D0130B40234080739031DD92DDA2D9E
:100BB200C42DE82DE82DE82D0130AC36AB0CAA0C83
:100BC200890BDE2D0130B0003008B607E82D36085B
:100BD2003506031DED2DEE2DDD2D232E232E360899
:100BE20035020318F52DF62D232EF72D0130AA35E7
:100BF200AB0DAC0D890BF82D0130B6023508360667
:100C02000319042E052E1B2E0130B40234080739B5
:100C1200031D0C2E0D2EF72D1B2E1B2E1B2E01300D
:100C2200AF36AE0CAD0C890B112E0130B00030087E
:100C3200B5071B2E36083506031D202E212E102E39
:100C4200232E232EB41F262E272E382EFF30AA063F
:100C5200FF30AB06FF30AC060130AA0700300318A4
:100C62000130AB07003003180130AC07382E341FB7
:100C72003B2E3C2E4D2EFF30AD06FF30AE06FF3030
:100C8200AF060130AD07003003180130AE07003067
:100C920003180130AF074D2EB4012A08AD072B0807
:100CA200AE3D2C08AF3DAF1F572E582E6C2EFF3095
:100CB200AD06FF30AE06FF30AF060130AD070030A3
:100CC20003180130AE07003003180130AF07B4013A
:100CD2000314B40D6C2E2D08F0002E08F1002F081D
:100CE200F2003608B0003008F3003408B1003108D1
:100CF200F4008131F321853170082000AA007108C7
:100D0200AB007208AC00852E08007B3021009900F0
:100D1200980122009D01C0308B000D3021008E0011
:100D22003F308C00143023008C0005308E009C0173
:100D320019309B001E119F111E129D171E139E112A
:100D42001D121F122000111223009E1621001E08E0
:100D52008F3950389E00FC309E059E17903022003D
:100D620093004030210092000230220094002000C3
:100D7200E60102306602031CBF2EC02EC22EE52EF3
:100D8200E52E03108E1E03140318C82ECB2E20004E
:100D92008E16CD2E20008E121530D2004B30D1008F
:100DA200D130D000D00BD32ED10BD32ED20BD32ED9
:100DB200640001302000D0005008E60702306602CD
:100DC200031CE42EE52EC22E8E14E830F000033010
:100DD200F1008031F620863120008E10E830F000DC
:100DE2000330F1008031F6208631F82E8E12200079
:100DF2008C1AFC2EFD2EF72E8E1267088031DA2017
:100E02008631032F20008E19072F082FC42F2200AE
:100E1200131F0C2F0D2F152F20008E161213653065
:100E2200D0005008E7001B2F20008E127530D00032
:100E32005008E7000530DB000030DC000630D0004F
:100E42005008E000823166228631003020006C02B8
:100E52000B3003196B0203182F2F302F3A2F00305B
:100E62006E021A3003196D02031C382F392FD32F4B
:100E72003A2F6C08D601D6076B08D501D5076E0844
:100E8200D801D8076D08D701D7078231662286318B
:100E9200200056086C02031D502F55086B020318E0
:100EA200532F542F5B2F5608EC01EC075508EB012A
:100EB200EB075B2F58086E02031D612F57086D0266
:100EC2000318642F652F6C2F5808EE01EE075708A0
:100ED200ED01ED076C2FF430DB000130DC000A304D
:100EE200F0000030F1006C08F301F3076B08F20127
:100EF200F20781316321863170082000D00050084A
:100F0200E9001930F0000030F1006E08F301F30738
:100F12006D08F201F20781316321863170082000E9
:100F2200D0005008EA006A08A03E860087016908DE
:100F3200A03E8400850100080107D0005008DE00B1
:100F42005E0881312421863120002A08BD002B0849
:100F5200BE002C08BF0084315C24863120003D088D
:100F6200F9003E08FA003F08FB008231F322863185
:100F720079082000D0005008E7001530D000500852
:100F8200E000D32FD32F18108E124530D000500816
:100F9200E7000630D0005008E0000530DB000030EA
:100FA200DC00D32FE401EF2F6F088031DA20863185
:100FB200200067088031DA20863120006008803105
:100FC200DA2086312000600867078031DA20863116
:100FD20001302000D0005008E407EF2F6408D00051
:100FE200D1015C085102031DF82F5B085002031C5B
:0E0FF200FB2FFC2FD52F032F032F032F0128D9
:020000040001F9
:04000E00A4FFFFDE6E
:00000001FF
